:020000040800F2
:1000000078250024010010081F07100815030008B8
:100010001B071008AB001008E932000800000000C0
:10002000000000000000000000000000BD091008F2
:100030003303000800000000A1260008E1270008A3
:100040001B0010081B0010081B0010081B001008E4
:100050001B0010081B0010081B0010081B001008D4
:100060001B0010081B0010081B0010081B001008C4
:100070001B0010081B0010081B0010081B001008B4
:100080001B0010081B0010081B0010081B001008A4
:100090001B0010081B0010081B0010081B00100894
:1000A0001B0010081B0010081B0010081B00100884
:1000B000FD2700081B0010081B0010081B0010087B
:1000C0001B0010081B0010081B0010081B00100864
:1000D0001B001008910E10081B001008A10E10083C
:1000E0001B0010081B001008000000001B00100877
:1000F0001B0010081B0010081B0010081B00100834
:100100001B0010081B0010081B0010081B00100823
:100110001B0010081B0010081B0010081B00100813
:100120001B0010081B0010081B0010081B00100803
:100130001B0010081B0010081B0010081B001008F3
:1001400000000000000000000000000000000000AF
:100150001B0010081B0010081B0010081B001008D3
:100160001B0010081B0010081B0010081B001008C3
:100170001B0010081B0010081B00100800000000E6
:100180001B0010081B0010081B0010081B001008A3
:100190001B0010081B0010081B0010081B00100893
:1001A0001B0010081B0010081B0010081B00100883
:1001B0001B0010081B0010081B0010081B00100873
:1001C0001B0010081B0010081B0010081B00100863
:1001D0001B0010081B0010081B0010081B00100853
:1001E0001B0010081B0010081B0010081B00100843
:1001F0001B0010081B0010081B0010081B00100833
:100200001B0010081B0010081B0010081B00100822
:100210001B0010081B0010081B0010081B00100812
:100220001B0010081B0010081B0010080000000035
:100230001B0010081B001008000000001B00100825
:100240001B0010081B0010081B0010081B001008E2
:100250001B0010081B0010081B0010081B001008D2
:100260001B0010081B0010081B0010081B001008C2
:100270001B0010081B0010081B00100800000000E5
:100280001B001008000000001B0010080000000008
:10029000000000001B001008DFF810D000F028F864
:1002A0000048004731390008AFF30080782500246A
:1002B000202A04DB203A00FA02F100207047914026
:1002C000C2F1200320FA03F3194390407047202A1B
:1002D00004DB203A21FA02F00021704721FA02F3F0
:1002E000D040C2F1200291400843194670470000F7
:1002F000064C074D06E0E06840F0010394E8070073
:1003000098471034AC42F6D3FFF7CAFF24460008E2
:10031000444600081EF0040F0CBFEFF30880EFF313
:10032000098002F03FB810B500F10AFB00F1BAFAFB
:1003300010BD704701B9704700BFFEE770B50446B5
:100340001D460023B5F5804F13D154F822300C48D8
:100350000340D1E9000640EA06108E6840EA062014
:100360008E8940EA06408E693043034344F82230C8
:1003700003E06FF0704044F82200002070BD0000E0
:100380000000F0CF10B502460023086852F8203074
:100390001B480340D1E901042043CC6820430C6989
:1003A00020434C6920438C692043CC6920430C6A6C
:1003B00020434C6A20438C6A2043CC6A20430C6B58
:1003C00020438C6B20434C6B2043034388680828F0
:1003D00001D143F04003086842F82030086BB0F5C3
:1003E000801F05D1086818B110680C6B204310609D
:1003F000086818B110684C6B20431060002010BDD5
:100400008004C0FF30B5034614460022601C53F838
:10041000202002F04042D1E9000540EA05108D6835
:1004200040EA05208D8940EA0545088A401E45EAD4
:100430000055087D801E45EA00608D69284302430F
:10044000601C43F82020186800F4801038B1586808
:1004500020F47002088A401E42EA00525A600020CE
:1004600030BD00000348006840F001000149086009
:100470007047000020040058F8B502460B460021E2
:10048000002600240020824D00BFFCE0012707FA6F
:1004900001F61F6807EA0604B4427CD15F68022FA8
:1004A00002D05F68122F1AD14FEAD10C02F1200757
:1004B00057F82C004F074FEAD76C0F2707FA0CF7B5
:1004C000B8434FEA417C4FEADC6C1F6907FA0CF72E
:1004D00038434FEAD10C02F1200747F82C0010688E
:1004E0004FEA410C032707FA0CF7B8431F7907F0CE
:1004F00003074FEA410C07FA0CF7384310605F68B6
:10050000012F08D05F68022F05D05F68112F02D03D
:100510005F68122F17D190684FEA410C032707FA42
:100520000CF7B8434FEA410CDF6807FA0CF7384381
:100530009060506801278F40B8431F79C7F30017B8
:100540008F4038435060D0684FEA410C032707FAC8
:100550000CF7B8434FEA410C9F6807FA0CF7384391
:10056000D0605F6807F08057B7F1805F95D100BF1A
:10057000484F3F6847F00207DFF818C1CCF8007019
:1005800067463F6807F00207009700BF00BF424F71
:100590004FEA910C00E075E057F82C008F074FEA06
:1005A000177C0F2707FA0CF7B8433C4FBA4201D12A
:1005B00000272DE03A4FBA4201D1012728E0394FF8
:1005C000BA4201D1022723E0374FBA4201D10327B3
:1005D0001EE0364FBA4201D1042719E0344FBA4227
:1005E00001D1052714E0334FBA4201D106270FE0AD
:1005F000314FBA4201D107270AE0304FBA4201D148
:10060000082705E02E4FBA4201D1092700E00A274A
:100610004FEA817C4FEA1C7C07FA0CF738431E4FE7
:100620004FEA910C47F82C002868A0435F6807F454
:100630008037B7F5803F00D1204328606868A04329
:100640005F6807F40037B7F5003F00D120436860CA
:100650004FF0B0473868A0435F6807F48017B7F5DC
:10066000801F00D120434FF0B04738607868A04326
:100670005F6807F40017B7F5001F00D120434FF063
:10068000B0477860491C1029FFF400AFF8BD0000A6
:1006900080000058F4440258080400580000025832
:1006A0000004025800080258000C025800100258BA
:1006B0000014025800180258001C0258002002586A
:1006C0000024025803480068034909780844014996
:1006D00008607047240000242C00002470B50446F4
:1006E0000E4800784FF47A71B1FBF0F00C490968BC
:1006F000B1FBF0F52846FFF007FE08B1012070BD00
:10070000102C07D200222146501EFFF043FD054861
:10071000046001E00120F2E70020F0E72C00002453
:10072000300000242800002400BF00BF00BFBFF33A
:100730005F8F00BF00BF00BF0548006820F4803015
:1007400003490860002002497031086070470000CA
:1007500024ED00E07047000000BF00F00702064BE8
:1007600019684FF6FF031940044B0B4343EA02217B
:10077000014B196000BF70470CED00E00000FA0566
:1007800070B5014600220120002300249FED811A4C
:10079000B0EE410A9FED7F1AF0EE410A7E4D2D68C2
:1007A00005F003027C4D2D68C5F305307A4D2D1DF3
:1007B0002D6805F01003784D14352D68C5F3CC0570
:1007C00015FB03F501EE105AB8EE411AB0EE410ADE
:1007D00022B1012A4DD0022A7DD169E06E4D283D1B
:1007E0002D68C5F340152DB36B4D283D2D68C5F31D
:1007F000C1066A4D25FA06F4B4FBF0F501EE105A75
:10080000F8EE411A9FED661A80EE012A624D10350E
:100810002D68C5F3080501EE105AB8EE411A32EE04
:10082000011AB7EE002A31EE021A21EE811AF0EE1B
:10083000410A1DE0594DB5FBF0F501EE105AF8EEF6
:10084000411A9FED571A80EE012A534D10352D683D
:10085000C5F3080501EE105AB8EE411A32EE011A3E
:10086000B7EE002A31EE021A21EE811AF0EE410AAB
:100870005EE04C4DB5FBF0F501EE105AB8EE412AA2
:100880009FED471AC0EE011A434D10352D68C5F390
:10089000080501EE105AB8EE411A31EE811AF7EE52
:1008A000001A31EE211A22EE011AF0EE410A3FE061
:1008B0003D4DB5FBF0F501EE105AF8EE411A9FEDF3
:1008C000381A80EE012A344D10352D68C5F308051D
:1008D00001EE105A00E00CE0B8EE411A32EE011AB7
:1008E000B7EE002A31EE021A21EE811AF0EE410A2B
:1008F0001EE02C4DB5FBF0F501EE105AB8EE412A82
:100900009FED271AC0EE011A234D10352D68C5F34F
:10091000080501EE105AB8EE411A31EE811AF7EED1
:10092000001A31EE211A22EE011AF0EE410A00BF40
:1009300000BF194D10352D68C5F346256D1C01EE1D
:10094000105AB8EE411AC0EE811ABCEEE11A81EDE0
:10095000001A114D10352D68C5F306456D1C01EECA
:10096000105AB8EE411AC0EE811ABCEEE11A81EDC0
:10097000011A094D10352D68C5F306656D1C01EE91
:10098000105AB8EE411AC0EE811ABCEEE11A81EDA0
:10099000021A70BD00000000284402580090D003E5
:1009A0000000004600093D0040787D0170B5014619
:1009B00000220120002300249FED811AB0EE410A9D
:1009C0009FED7F1AF0EE410A7E4D2D6805F003027F
:1009D0007C4D2D68C5F305507A4D2D1D2D6805F40D
:1009E0008073784D1C352D68C5F3CC0515FB03F5D8
:1009F00001EE105AB8EE411AB0EE410A22B1012AB6
:100A00004DD0022A7DD169E06E4D283D2D68C5F399
:100A100040152DB36B4D283D2D68C5F3C1066A4DB9
:100A200025FA06F4B4FBF0F501EE105AF8EE411A7F
:100A30009FED661A80EE012A624D18352D68C5F3C8
:100A4000080501EE105AB8EE411A32EE011AB7EE5F
:100A5000002A31EE021A21EE811AF0EE410A1DE061
:100A6000594DB5FBF0F501EE105AF8EE411A9FED25
:100A7000571A80EE012A534D18352D68C5F3080525
:100A800001EE105AB8EE411A32EE011AB7EE002A02
:100A900031EE021A21EE811AF0EE410A5EE04C4D71
:100AA000B5FBF0F501EE105AB8EE412A9FED471A5A
:100AB000C0EE011A434D18352D68C5F3080501EE47
:100AC000105AB8EE411A31EE811AF7EE001A31EEE3
:100AD000211A22EE011AF0EE410A3FE03D4DB5FB2E
:100AE000F0F501EE105AF8EE411A9FED381A80EE3B
:100AF000012A344D18352D68C5F3080501EE105A4A
:100B000000E00CE0B8EE411A32EE011AB7EE002A0E
:100B100031EE021A21EE811AF0EE410A1EE02C4D50
:100B2000B5FBF0F501EE105AB8EE412A9FED271AF9
:100B3000C0EE011A234D18352D68C5F3080501EEE6
:100B4000105AB8EE411A31EE811AF7EE001A31EE62
:100B5000211A22EE011AF0EE410A00BF00BF194D22
:100B600018352D68C5F346256D1C01EE105AB8EEF8
:100B7000411AC0EE811ABCEEE11A81ED001A114D46
:100B800018352D68C5F306456D1C01EE105AB8EEF8
:100B9000411AC0EE811ABCEEE11A81ED011A094D2D
:100BA00018352D68C5F306656D1C01EE105AB8EEB8
:100BB000411AC0EE811ABCEEE11A81ED021A70BD35
:100BC00000000000284402580090D00300000046B6
:100BD00000093D0040787D012DE9F04104460025E3
:100BE0000026206800F00060B0F1006F30D1606E28
:100BF00048B1B0F5801F0DD0B0F5001F10D0B0F592
:100C0000401F15D113E0F948006840F40030F7495F
:100C100008600FE00221201D01F044FD054609E0B7
:100C2000022104F12400FFF07BFD054602E001E013
:100C3000012500BF00BF55B9EC482430006820F4FE
:100C40004010616E0843E9492431086000E02E43FA
:100C5000208800F48070B0F5807F2DD1606D05286C
:100C60001AD2DFE800F0030A10171800DF48006806
:100C700040F40030DD49086010E00021201D01F043
:100C800011FD05460AE0002104F12400FFF048FDB3
:100C9000054603E002E001E0012500BF00BF55B9B1
:100CA000D2482430006820F00700616D0843CF4926
:100CB0002431086000E02E43208800F40070B0F575
:100CC000007F33D1A06D802817D003DC40B14028CD
:100CD0001CD10CE0C02817D0B0F5807F16D114E0ED
:100CE000C248006840F40030C049086010E00021AC
:100CF000201D01F0D7FC05460AE0002104F1240084
:100D0000FFF00EFD054603E002E001E0012500BF13
:100D100000BF55B9B5482430006820F4E070A16DDB
:100D20000843B2492431086000E02E43208800F4D3
:100D30008060B0F5806F38D1D4F8A400B0F5800F92
:100D400019D004DC50B1B0F5001F1DD10DE0B0F595
:100D5000C00F17D0B0F5000F16D114E0A3480068FB
:100D600040F40030A149086010E00021201D01F08E
:100D700099FC05460AE0002104F12400FFF0D0FCB4
:100D8000054603E002E001E0012500BF00BF5DB9B8
:100D900096482C30006820F46000D4F8A410084372
:100DA00092492C31086000E02E43208800F4006056
:100DB000B0F5006F38D1D4F8A800B0F1007F19D099
:100DC00004DC50B1B0F1807F1DD10DE0B0F1407F67
:100DD00017D0B0F1806F16D114E08448006840F459
:100DE00000308249086010E00021201D01F05AFC0B
:100DF00005460AE0002104F12400FFF091FC0546BD
:100E000003E002E001E0012500BF00BF5DB97748C3
:100E10002C30006820F0E060D4F8A8100843734933
:100E20002C31086000E02E43206800F00070B0F123
:100E3000007F27D1A06CA0B1102804D0202809D0B1
:100E400030280FD10CE06948006840F40030674951
:100E5000086009E00221201D01F024FC054603E0A2
:100E600002E001E0012500BF00BF55B95F48203016
:100E7000006820F03000A16C08435C492031086014
:100E800000E02E43208800F48050B0F5805F36D11A
:100E9000E06DB0F5005F19D004DC50B1B0F5805FB3
:100EA0001DD10DE0B0F5405F17D0B0F5804F16D1E1
:100EB00014E04E48006840F400304C49086010E0EF
:100EC0000021201D01F0EEFB05460AE0002104F19F
:100ED0002400FFF025FC054603E002E001E00125C7
:100EE00000BF00BF55B941482430006820F4E040FD
:100EF000E16D08433D492431086000E02E4320881D
:100F000000F40050B0F5005F34D1206EB0F5403FE2
:100F10001DD007DC68B1B0F5803F0BD0B0F5003FC5
:100F200018D10DE0B0F5802F12D0B0F5A02F11D15F
:100F30000FE011E00121201D01F0B4FB05460BE09C
:100F4000012104F12400FFF0EBFB054604E003E07F
:100F500002E001E0012500BF00BF55B9234824305D
:100F6000006820F4E020216E084320492431086005
:100F700000E02E43208800F48040B0F5804F38D147
:100F8000D4F8AC00B0F1405F1DD007DC68B1B0F11F
:100F9000805F0BD0B0F1005F18D10DE0B0F1804F51
:100FA00012D0B0F1A04F11D10FE011E00121201DAE
:100FB00001F078FB05460BE0012104F12400FFF06D
:100FC000AFFB054604E003E002E001E0012500BFBD
:100FD00000BF6DB905482C30006820F0E040D4F81F
:100FE000AC10084301492C31086002E02C4402583F
:100FF0002E43208800F40040B0F5004F26D1E06E6B
:1010000098B1B0F1805F03D0B0F1005F0ED106E07F
:10101000FA48006840F40030F849086008E001210F
:10102000201D01F03FFB054602E001E0012500BF65
:1010300000BF55B9F1482430006820F04050E16EFF
:101040000843EE492431086000E02E43206800F098
:101050008070B0F1807F27D1606CA0B1012804D0EE
:10106000022809D003280FD10CE0E448006840F4BE
:101070000030E249086009E00221201D01F012FB66
:10108000054603E002E001E0012500BF00BF55B9BD
:10109000DA482030006820F00300616C0843D7492B
:1010A0002031086000E02E43206800F48000B0F595
:1010B000800F7DD1D248006840F48070D04908602C
:1010C000FEF0F6FF074606E0FEF0F2FFC01B6428C4
:1010D00001D9032505E0CA48006800F480700028A3
:1010E000F2D000BF8DBBC5484430006800F44070AA
:1010F000B4F8B01001F44071884214D0BF484430B5
:10110000006820F44078BD484430006840F48030E6
:10111000BA49443108600846006820F4803008600D
:101120000846C0F80080D4F8B000B0F5807F15D133
:10113000FEF0BEFF074609E0FEF0BAFFC01B41F219
:101140008831884202D9032507E038E0AB484430B3
:101150000068C0F340000028EED000BF4DBB00BFC8
:10116000B4F8B00000F44070B0F5407F0ED1A34851
:101170001C38006820F47C51A24AD4F8B00010401A
:1011800041EA10109D491C39086007E09B481C3853
:10119000006820F47C5099491C3908609748443015
:1011A0000068B4F8B010C1F30B010843934901E0A3
:1011B00006E002E04431086002E02E4300E02E43E6
:1011C000207800F0010068B3A06F182819D005DC62
:1011D00048B1082808D0102816D10BE0202811D0DB
:1011E000282811D10FE011E00121201D01F05AFA49
:1011F00005460BE0012104F12400FFF091FA0546B9
:1012000004E003E002E001E0012500BF00BF55B9A2
:101210007A482830006820F03800A16F08437749E9
:101220002831086000E02E43207800F002000228F8
:1012300028D1606F062815D2DFE800F003040A11F8
:10124000121311E00121201D01F02CFA05460BE0DC
:10125000012104F12400FFF063FA054604E003E0F5
:1012600002E001E0012500BF00BF55B96348283006
:10127000006820F00700616F08436049283108606A
:1012800000E02E43207800F0040004282AD1D4F88E
:101290009000062815D2DFE800F003040A111213AB
:1012A00011E00121201D01F0FDF905460BE00121AF
:1012B00004F12400FFF034FA054604E003E002E004
:1012C00001E0012500BF00BF5DB94C482C3000682B
:1012D00020F00700D4F89010084348492C310860EA
:1012E00000E02E43207800F02000202836D1D4F8EA
:1012F0008C00B0F1405F1DD007DC68B1B0F1805FB9
:101300000BD0B0F1005F18D10DE0B0F1804F12D0DA
:10131000B0F1A04F11D10FE011E00021201D01F02C
:10132000C1F905460BE0022104F12400FFF0F8F9B1
:10133000054604E003E002E001E0012500BF00BF34
:101340005DB92E482830006820F0E040D4F88C10B9
:1013500008432A492831086000E02E43207800F035
:101360004000402836D1D4F89800B0F5406F1DD029
:1013700007DC68B1B0F5806F0BD0B0F5006F18D105
:101380000DE0B0F5805F12D0B0F5A05F11D10FE095
:1013900011E00021201D01F085F905460BE0022136
:1013A00004F12400FFF0BCF9054604E003E002E08C
:1013B00001E0012500BF00BF5DB910482C30006876
:1013C00020F4E050D4F8981008430C492C31086000
:1013D00000E02E43207800F0800080283BD1D4F834
:1013E0009C00B0F5C04F24D00EDCA0B1B0F5005F7A
:1013F00012D0B0F5804F1FD114E000002C440258E9
:1014000000480258FFFCFF0FB0F5004F12D0B0F5B6
:10141000204F11D10FE011E00021201D01F042F911
:1014200005460BE0022104F12400FFF079F905469E
:1014300004E003E002E001E0012500BF00BF4DB978
:10144000B248006820F46040D4F89C100843AF49CB
:10145000086000E02E43207800F00800082816D12C
:10146000D4F88000B0F5805F06D1022104F1240099
:10147000FFF056F906430AE0A448001F006820F474
:101480004050D4F880100843A049091F0860207814
:1014900000F01000102814D1D4F89400B0F5807F2B
:1014A00006D1022104F12400FFF03AF9064308E0D6
:1014B0009648006820F44070D4F89410084393498B
:1014C0000860206800F40020B0F5002F26D1D4F881
:1014D000A00030B1B0F5803F09D0B0F5003F0ED18B
:1014E0000CE00021201D01F0DDF8054609E0022195
:1014F00004F12400FFF014F9054602E001E00125A3
:1015000000BF00BF4DB98148006820F44030D4F8D6
:10151000A01008437D49086000E02E43206800F4D5
:101520008020B0F5802F2DD1D4F88400B0F5801F35
:1015300006D0B0F5001F0CD0B0F5401F11D10FE060
:1015400072482C38006840F4003070492C3908602B
:1015500009E0012104F12400FFF0E2F8054602E071
:1015600001E0012500BF00BF5DB96848001F0068A9
:1015700020F44010D4F8841008436449091F08601F
:1015800000E02E43206800F48030B0F5803F24D185
:10159000E06C18B1B0F5803F0FD108E05B482C3803
:1015A000006840F4003059492C39086007E00221F6
:1015B000201D01F077F8054601E0012500BF00BFBE
:1015C00055B952480C38006820F48030E16C08436B
:1015D0004E490C39086000E02E43206800F00050AE
:1015E000B0F1005F05D1022104F12400FFF098F86A
:1015F0000643206800F40030B0F5003F27D1E06FCB
:10160000A0B1B0F5807F06D0B0F5007F0CD0B0F56A
:10161000407F0CD109E03D482C38006840F4003090
:101620003A492C39086004E003E002E001E00125BA
:1016300000BF00BF55B93548001F006820F4407056
:10164000E16F08433149091F086000E02E4320681C
:1016500000F48010B0F5801F09D12C4808380068CC
:1016600020F00040216F08432849083908602068AD
:1016700000F08050B0F1805F0AD1244848380068FB
:1016800020F48040D4F8B410084320494839086059
:10169000206800F40010B0F5001F09D11B4808387D
:1016A000006820F08070A16E08431849083908606E
:1016B000206800F08040B0F1804F11D100BF134886
:1016C0004838006820F4004010494839086008464E
:1016D0000068D4F8B81008430C494839086000BFC6
:1016E000206800F00040B0F1004F09D107480C38E5
:1016F000006820F04050216D084304490C3908600F
:1017000016B90020BDE8F0810120FBE758440258DB
:1017100070B504460D4600268D48006800F00700AD
:10172000A8420ED28A48006820F007002843884962
:1017300008600846006800F00700A84201D00120B8
:1017400070BD207800F00200022807D181480068AF
:1017500020F00F00E16808437E490860207800F01F
:101760000100002851D07B48006820F47060A16817
:101770000843784908606068022807D1754818381E
:101780000068C0F34040F8B90120D9E76068032839
:1017900007D1704818380068C0F34060A0B9012034
:1017A000CEE76068012807D16A4818380068C0F39E
:1017B000002048B90120C3E7664818380068C0F324
:1017C000800008B90120BBE762480838006820F0B3
:1017D0000700616808435F4908390860FEF068FC4B
:1017E00006466068022811D108E0FEF061FC801B0B
:1017F00041F28831884201D90320A1E755480838D1
:10180000006800F038001028EFD13AE06068032843
:1018100011D108E0FEF04CFC801B41F28831884277
:1018200001D903208CE74B480838006800F03800E5
:101830001828EFD125E06068012811D108E0FEF0FA
:1018400037FC801B41F28831884201D9032077E7B9
:1018500040480838006800F038000828EFD110E050
:1018600008E0FEF025FC801B41F28831884201D956
:10187000032065E737480838006800F03800002882
:10188000EFD13348006800F00700A8420ED9304875
:10189000006820F0070028432D49086008460068CA
:1018A00000F00700A84201D0012049E7207800F0AD
:1018B0000400042807D12748006820F0700021693F
:1018C000084324490860207800F00800082809D15E
:1018D0002048001D006820F07000616908431D4920
:1018E000091D0860207800F01000102809D119485F
:1018F000001D006820F4E060A16908431549091D36
:101900000860207800F02000202809D11148083014
:10191000006820F07000E16908430E490831086052
:1019200000F050F80B49096801F470614FF48072BF
:1019300092FAA2F2B2FA82F2D140074A515CC84050
:10194000064908600F20FEF7C9FE0020F8E60000F7
:1019500000200052184402581446000830000024A9
:1019600010B5FEF055FC0949096801F00F0101228C
:1019700092FAA2F2B2FA82F2D140054A515CC84012
:10198000044908600846006810BD00001844025869
:10199000144600083400002410B5FFF7E1FF0749A2
:1019A000096801F4E0614FF4807292FAA2F2B2FA8F
:1019B00082F2D140024A515CC84010BD1C4402581A
:1019C0001446000870B5012500EE905A002201214E
:1019D00000230024DFED861AB0EE610ADFED841AE1
:1019E000B0EE611A0020834D2D6805F0380535B141
:1019F000082D15D0102D15D0182D7CD114E07D4D5B
:101A0000103D2D68C5F3401545B17A4D103D2D6848
:101A1000C5F3C106784D25FA06F000E07648E5E00A
:101A20007648E3E07648E1E0724D18352D6805F020
:101A30000302704D18352D68C5F305116D4D1C3529
:101A40002D6805F001036B4D24352D68C5F3CC05D9
:101A500015FB03F501EE905AF8EE611AB0EE610A3B
:101A600022B1012A4FD0022A7DD16BE0614D103D99
:101A70002D68C5F340152DB35E4D103D2D68C5F39F
:101A8000C1065D4D25FA06F4B4FBF1F501EE905A5E
:101A9000B8EE612ADFED5B1AC0EE212A554D2035E4
:101AA0002D68C5F3080501EE905AF8EE611A72EE42
:101AB000A11AF7EE002A71EEA21A62EE211AB0EE18
:101AC000611A1FE04C4DB5FBF1F501EE905AB8EEEE
:101AD000612ADFED4C1AC0EE212A464D20352D68D3
:101AE000C5F3080501EE905AF8EE611A72EEA11ADC
:101AF000F7EE002A00E077E071EEA21A62EE211AFA
:101B0000B0EE611A5EE03D4DB5FBF1F501EE905A85
:101B1000B8EE612ADFED3B1AC0EE212A354D2035A3
:101B20002D68C5F3080501EE905AF8EE611A72EEC1
:101B3000A11AF7EE002A71EEA21A62EE211AB0EE97
:101B4000611A3FE02E4DB5FBF1F501EE905AB8EE6B
:101B5000612ADFED2C1AC0EE212A264D20352D6892
:101B6000C5F3080500E00EE001EE905AF8EE611AA8
:101B700072EEA11AF7EE002A71EEA21A62EE211A95
:101B8000B0EE611A1EE01D4DB5FBF1F501EE905A65
:101B9000F8EE612ADFED1B1A80EE212A154D203563
:101BA0002D68C5F3080501EE905AF8EE611A72EE41
:101BB000211AB7EE002A71EE821A62EEA11AB0EE77
:101BC000611A00BF00BF0B4D20352D68C5F34625B7
:101BD0006D1C00EE905AF8EE601A81EE212AFCEEA0
:101BE000C21A11EE900A01E0044800BF00BF70BDA8
:101BF00000000000104402580090D00300093D008E
:101C000040787D010000004670B50446002520782C
:101C100000F00100002872D0F948006800F0380098
:101C200010280CD0F648006800F03800182812D1AF
:101C3000F3481830006800F0030002280BD1F04888
:101C400010380068C0F3404000286DD0606800285C
:101C50006AD1012070BD00BF6068B0F5803F08D137
:101C6000E7481038006840F48030E54910390860D2
:101C70002EE0606868B9E2481038006820F48030CF
:101C8000DF49103908600846006820F480200860A9
:101C90001EE06068B0F5A02F0DD1D948103800685B
:101CA00040F48020D649103908600846006840F4A6
:101CB000803008600CE0D2481038006820F4803092
:101CC000CF49103908600846006820F48020086079
:101CD00000BF6068A0B1FEF0EBF9054608E0FEF039
:101CE000E7F9401B41F28831884201D90320B1E76E
:101CF000C34810380068C0F340400028EFD013E01C
:101D0000FEF0D6F9054608E0FEF0D2F9401B41F29C
:101D10008831884201D903209CE7B948103800680F
:101D2000C0F340400028EFD1207800F002000228E4
:101D300047D1B348006800F0380058B1B048006897
:101D400000F0380018283ED1AD481830006800F087
:101D50000300B8BBAA4810380068C0F3800018B16F
:101D6000E06808B9012075E7A5481038006820F040
:101D70001900E1680843A24910390860FEF098F99B
:101D8000054606E0FEF094F9401B022801D9032025
:101D900060E79B4810380068C0F380000028F1D04D
:101DA00097480C38006820F47C304FF47C3292FA6B
:101DB000A2F2B2FA82F221699140084390490C39AB
:101DC00008604AE0FFE7E06868B38D4810380068B3
:101DD00020F01900E1680843894910390860FEF0D5
:101DE00067F9054606E0FEF063F9401B022801D9B9
:101DF00003202FE7824810380068C0F380000028D5
:101E0000F1D07F480C38006820F47C304FF47C32ED
:101E100092FAA2F2B2FA82F221699140084378491B
:101E20000C39086019E076481038006820F001008D
:101E3000734910390860FEF03BF9054606E0FEF0F4
:101E400037F9401B022801D9032003E76C481038FA
:101E50000068C0F380000028F1D1207800F0100065
:101E6000102877D16648006800F0380008280CD0A8
:101E70006348006800F03800182823D16048183003
:101E8000006800F0030001281CD15D48103800688C
:101E9000C0F3002020B1E069802801D00120D9E6FC
:101EA00057480C38006820F0F8404FF0F84292FA9A
:101EB000A2F2B2FA82F2216A9140084350490C39E9
:101EC000086047E0E06958B34D481038006840F0BA
:101ED00080004B4910390860FEF0EAF8054606E03C
:101EE000FEF0E6F8401B022801D90320B2E6444880
:101EF00010380068C0F300200028F1D040480C38AA
:101F0000006820F0F8404FF0F84292FAA2F2B2FADC
:101F100082F2216A9140084339490C39086019E07E
:101F200037481038006820F08000354910390860C3
:101F3000FEF0BEF8054606E0FEF0BAF8401B0228A7
:101F400001D9032086E62E4810380068C0F300202F
:101F50000028F1D1207800F00800082836D1606907
:101F6000D0B127486430006840F001002449643152
:101F70000860FEF09DF8054606E0FEF099F8401B6B
:101F8000022801D9032065E61D4864300068C0F3CB
:101F900040000028F1D019E019486430006820F0B2
:101FA0000100174964310860FEF082F8054606E03A
:101FB000FEF07EF8401B022801D903204AE61048B3
:101FC00064300068C0F340000028F1D1207800F0B0
:101FD0002000202834D1A069D8B109481038006801
:101FE00040F48050064910390860FEF061F805465B
:101FF00008E0FEF05DF8401B022803D9032029E623
:1020000010440258AF480068C0F340300028F0D0B8
:1020100016E0AC48006820F48050AA490860FEF041
:1020200047F8054606E0FEF043F8401B022801D9B8
:1020300003200FE6A3480068C0F340300028F2D127
:10204000207800F0040004287DD19F48006840F407
:1020500080709D490860FEF02BF8054606E0FEF012
:1020600027F8401B642801D90320F3E5964800684F
:1020700000F480700028F2D000BFA068012808D1C9
:1020800090487030006840F001008E49703108605F
:102090002DE0A06868B98B487030006820F001001E
:1020A0008849703108600846006820F00400086024
:1020B0001DE0A06805280DD182487030006840F00E
:1020C00004008049703108600846006840F0010053
:1020D00008600CE07B487030006820F0010079490E
:1020E000703108600846006820F00400086000BFF6
:1020F000A068A0B1FDF0DCFF054608E0FDF0D8FFC8
:10210000401B41F28831884201D90320A2E56D4885
:1021100070300068C0F340000028EFD013E0FDF0FD
:10212000C7FF054608E0FDF0C3FF401B41F28831C0
:10213000884201D903208DE5624870300068C0F301
:1021400040000028EFD1606A00287CD05D48103044
:10215000006800F03800182876D0606A022874D130
:102160005848006820F0807056490860FDF0A0FFD4
:10217000054606E0FDF09CFF401B022801D9032024
:1021800068E550480068C0F340600028F2D100BF05
:10219000D4E90A1041EA00104A492831096840F29E
:1021A000F33291430843474928310860208E401E8E
:1021B000C0F30800616B491E4FF47E4202EA4121E0
:1021C0000843218F491ED20102EA014108433C2104
:1021D000095D491E120202EA0161084339493031A2
:1021E000086000BF081D00684FF6F87188434FF67D
:1021F000F87292FAA2F2B2FA82F2A16C914008430C
:102200003049343108602F482C30006820F00C0031
:10221000216C08432B492C3108600846006820F0E7
:102220000200616C084327492C31086008460068A9
:1022300040F4803008600846006840F400300860D0
:102240000846006802E03BE038E01FE040F48020F0
:1022500008600846006840F00100086019480068FE
:1022600040F0807017490860FDF022FF054606E047
:10227000FDF01EFF401B022801D90320EAE41148AB
:102280000068C0F340600028F2D019E00D480068F3
:1022900020F080700B490860FDF00AFF054606E05B
:1022A000FDF006FF401B022801D90320D2E40548B7
:1022B0000068C0F340600028F2D101E00120C9E4C9
:1022C0000020C7E40044025800480258704710B587
:1022D00004460CB9012010BD94F83D0028B9002037
:1022E00084F83C002046FEF029F8022084F83D00E6
:1022F000211D2068FEF080FC012084F83D000020B4
:10230000E9E7000000B59BB04C2108A8FDF0C2FE33
:102310001C2101A8FDF0BEFE18480890184809903D
:1023200005200190022002900390012004900220D9
:1023300005900690002007900A9000210B910C91C7
:1023400020210D9100210E910F9110914FF4805199
:1023500011910021129113911491159116911791D9
:1023600001AA01A908A8FDF09BFF20B14FF49271CA
:1023700004A0FDF7DFFF1BB000BD000000400052CD
:10238000044100522E2E5C2E2E5C557365725C62E9
:1023900073705C7372635C6273705F666D635F69B8
:1023A0006F2E630010B53249096801F0004149B150
:1023B0002F49096841F000412D4A11608169891C4B
:1023C000816110BD2A49083909682A4A11622849E1
:1023D000091F097882F824102549C91E09789162DD
:1023E00023490C310968D1622149891E0988118667
:1023F0001F49096851631E49091D096891631C49F9
:1024000010310968D1631CA200210BE0535C254CFC
:10241000238500BF234BDB6903F04003002BF9D079
:102420004B1CD9B22929F1D300211F4A116000BFEA
:102430001D4909680029FBD00E4A016811604168F6
:10244000516081689160C168D16001691161416921
:10245000516181699161C169D1610021124A1160A4
:1024600000BF114909680029FBD000BFA9E700009F
:102470002CED00E0341500240D0A456E74657220C1
:10248000486172644661756C745F48616E646C6526
:10249000722C2053797374656D2048616C742E0D15
:1024A0000A000000001001403800002401460B48DB
:1024B00050F831000069094B03EBC1039B881840B9
:1024C00008B9002200E00122044800EBC100807935
:1024D000904201D1012070470020FCE7944500089C
:1024E0001FB5FEF721F901208DF800004FF01050C4
:1024F000019012208DF8080003208DF80B000120B8
:102500008DF80F008DF80E0000208DF80D008DF86D
:10251000010001208DF80A0000208DF809008DF8D7
:102520000C006846FDF0D8FD01208DF800004FF04A
:10253000C04001900F208DF8080003208DF80B009B
:1025400001208DF80F0000208DF80E008DF80D0091
:1025500001208DF8010000208DF80A008DF8090097
:102560008DF80C006846FDF0B7FD0420FDF0E2FD9B
:102570001FBD000000B587B000BF00BF4448006821
:1025800040F00100424908600846006800F0010080
:10259000019000BF00BF00BF00BF00BF0846006839
:1025A00040F0020008600846006800F00200019058
:1025B00000BF00BF00BF00BF00BF0846006840F07A
:1025C000020008600846006800F00200019000BFA9
:1025D00000BF00BF00BF00BF0846006840F0040015
:1025E00008600846006800F00400019000BF00BFCA
:1025F00000BF00BF00BF0846006840F0040008604C
:102600000846006800F00400019000BF00BF00BF52
:102610004FF4004002900120039002200490032018
:10262000059002A91B48FDF727FF8020029001209A
:102630000390022004900320059002A91648FDF79C
:102640001BFF102002900120039002200490032021
:10265000059002A91048FDF70FFF402002900120CD
:102660000390022004900320059002A90B48FDF777
:1026700003FF802002900120039002200490032099
:10268000059002A90548FDF7F7FE07B000BD000060
:10269000E0440258000002580004025800080258A2
:1026A000704700002DE9F04104460E4600274848D7
:1026B000006800F00300032802D10120BDE8F0818A
:1026C00043482838006820F0806041492839086074
:1026D000FDF0EEFC054606E0FDF0EAFC401B02289A
:1026E00001D90320EAE73A4828380068C0F3C060FF
:1026F0000028F1D100BF3648006820F47C30216802
:1027000040EA013032490860A088401EC0F308004A
:10271000A168491E4FF47E4202EA41210843A18983
:10272000491ED20102EA01410843217C491E1202DE
:1027300002EA0161084326491031086000BF2448BD
:10274000001D006820F0C000616908432049091D90
:1027500008600846006820F02000A16908431C4971
:10276000091D08602EB90846006840F40020086082
:1027700012E0012E08D11648001D006840F48010B8
:102780001349091D086007E01148001D006840F466
:1027900000100F49091D08600D482838006840F0F6
:1027A00080600B4928390860FDF082FC054606E090
:1027B000FDF07EFC401B022801D903207EE704487F
:1027C00028380068C0F3C0600028F1D0384675E7AB
:1027D0002844025804200149088070471A0402580E
:1027E00010B5FDF76FFF0448007800B910BDFEF08A
:1027F000E7F800BFFAE700001C00002470B50025D0
:1028000000264FF08044206900F00205E06800F0E7
:1028100002065DB156B14FF6FD702061E0684FF6DB
:10282000FD710840E0601E4800688047206900F0A4
:102830000405E06800F004065DB156B14FF6FB7088
:102840002061E0684FF6FB710840E06015480068C1
:102850008047206900F00805E06800F008065DB1D7
:1028600056B14FF6F7702061E0684FF6F7710840F7
:10287000E0600D4800688047206900F01005E068BE
:1028800000F010065DB156B14FF6EF702061E068C0
:102890004FF6EF710840E06004480068804770BD63
:1028A0000000002404000024080000240C00002480
:1028B0002DE9F04F89B0044600254FF08008A94665
:1028C000AA4600200890FA492068884201D10120D8
:1028D00000E0002000B100E000BFA06AB0F1005F9E
:1028E00000D100BF2169A068084361690843E1691C
:1028F00040EA0105A06A054320680068ED490840E8
:102900002843216808602068406820F44050E1684E
:10291000084321684860A569E5492068884201D1DB
:10292000012000E0002008B9206A0543A06AB0F148
:10293000005F03D1D4E90B01084305432068806898
:10294000DD4908402843216888602068C06A20F07B
:102950000F00616A08432168C86200BFD749206838
:10296000884224D1D648006800F03800182814D0D6
:1029700005DC48B108280AD0102817D10AE0202821
:102980000ED0282812D10EE04FF001080EE04FF0D3
:1029900004080BE04FF0400808E04FF0080805E09D
:1029A0004FF0100802E04FF0200800BF17E1C549C2
:1029B000206888421DD1C248006800F00700062840
:1029C00016D2DFE800F00306090C0F124FF00008E2
:1029D0000EE04FF004080BE04FF0400808E04FF025
:1029E000080805E04FF0100802E04FF0200800BF93
:1029F000F5E0B549206888421DD1B148006800F073
:102A00000700062816D2DFE800F00306090C0F12B3
:102A10004FF000080EE04FF004080BE04FF04008C4
:102A200008E04FF0080805E04FF0100802E04FF012
:102A3000200800BFD3E0A549206888421DD1A048E6
:102A4000006800F00700062816D2DFE800F0030651
:102A5000090C0F124FF000080EE04FF004080BE0D5
:102A60004FF0400808E04FF0080805E04FF010086C
:102A700002E04FF0200800BFB1E09549206888428D
:102A80001DD18F48006800F00700062816D2DFE845
:102A900000F00306090C0F124FF000080EE04FF093
:102AA00004080BE04FF0400808E04FF0080805E08C
:102AB0004FF0100802E04FF0200800BF8FE085497A
:102AC0002068884224D17E48006800F03800182829
:102AD00014D005DC48B108280AD0102817D10AE024
:102AE00020280ED0282812D10EE04FF001080EE069
:102AF0004FF004080BE04FF0400808E04FF00808E2
:102B000005E04FF0100802E04FF0200800BF66E03B
:102B10007149206888421DD16948006800F00700AB
:102B2000062816D2DFE800F00306090C0F124FF05A
:102B300000080EE04FF004080BE04FF0400808E0FA
:102B40004FF0080805E04FF0100802E04FF02008B1
:102B500000BF44E06149206888421DD158480068A0
:102B600000F00700062816D2DFE800F00306090C83
:102B70000F124FF000080EE04FF004080BE04FF08A
:102B8000400808E04FF0080805E04FF0100802E0A8
:102B90004FF0200800BF22E04549206888421ED13E
:102BA0004748001D006800F00700062816D2DFE83D
:102BB00000F00306090C0F124FF002080EE04FF070
:102BC00004080BE04FF0400808E04FF0080805E06B
:102BD0004FF0100802E04FF0200800BF00BF00BF18
:102BE00033492068884201D1012000E000200028FC
:102BF0005DD00025B8F1100F33D009DCB8F1020F19
:102C000010D0B8F1040F11D0B8F1080F2ED117E091
:102C1000B8F1200F27D0B8F1400F0CD0B8F1800FD9
:102C200024D124E0FDF010FB054623E005A8FDF7C4
:102C3000A7FD069D1EE002A8FDF7B8FE039D19E062
:102C40001F4854380068C0F3401040B11C48543845
:102C50000068C0F3C101224820FA01F500E0204DD0
:102C600008E0204D06E04FF4004503E000BF0120DE
:102C7000089000BF00BF002D0AD0606800EB400044
:102C8000A84203D860680003A84202D2012008903D
:102C9000D4E2B8F1100F7CD026DCB8F1020F2DD0B1
:102CA000B8F1040F52D0B8F1080F73D19EE03FE1A4
:102CB000000C0058F369FFCFFFF4FF110010014032
:102CC000544402580044004000480040004C00407A
:102CD000005000400014014000780040007C00409B
:102CE0000090D00300093D00B8F1200F7DD0B8F16D
:102CF000400F54D0B8F1800FD7D109E1FDF0A4FA0C
:102D000000270646FB49606A31F810C062463B4620
:102D100030463946FDF086F94FF4807600220346AE
:102D2000A3FB060701FB067103FB02136168490858
:102D3000064671185A41CDE90012666832460023F2
:102D400008460199FDF06EF90546E4E005A8FDF797
:102D500017FDDDF818C0E749606A31F810B05A462F
:102D6000002360461946FDF05DF94FF4807C002297
:102D7000A0FB0C3B01FB0CB100FB02106168490891
:102D80005E1840EB0201D4F804C0624600233046CE
:102D900001E079E0BBE0FDF045F90546BBE002A8A3
:102DA000FDF704FEDDF80CC0D249606A31F810B0BE
:102DB0005A46002360461946FDF034F94FF4807CF2
:102DC0000022A0FB0C3B01FB0CB100FB0210616870
:102DD00049085E1840EB0201D4F804C062460023A3
:102DE0003046FDF01FF9054695E06EE0C2480068E8
:102DF000C0F3401038B3C0480068C0F3C101BF48F9
:102E000020FA01FCBB49606A31F810B05A46002331
:102E100060461946FDF006F94FF4807C0022A0FBC5
:102E20000C3B01FB0CB100FB0210616849085E1805
:102E300040EB0201D4F804C0624600233046FDF0A6
:102E4000F1F805461FE0AB49606A31F810C06246F0
:102E50000023AA481946FDF0E5F84FF4807C0022D3
:102E6000A0FB0C3B01FB0CB100FB021061684908A0
:102E70005E1840EB0201D4F804C0624600233046DD
:102E8000FDF0D0F8054646E09A49606A31F810C076
:102E9000624600239A481946FDF0C4F84FF4807C3E
:102EA0000022A0FB0C3B01FB0CB100FB021061688F
:102EB00049085E1840EB0201D4F804C062460023C2
:102EC0003046FDF0AFF8054625E08A49606A31F8E2
:102ED00010C0624600234FF400401946FDF0A2F8EE
:102EE0004FF4807C0022A0FB0C3B01FB0CB100FBEB
:102EF0000210616849085E1840EB0201D4F804C072
:102F0000624600233046FDF08DF8054603E000BF21
:102F10000120089000BF00BFB5F5407F05D3B5F58F
:102F2000801F02D22068C56088E10120089085E1F9
:102F3000E069B0F5004F7CD1B8F1100F7AD00CDC0D
:102F4000B8F1000F13D0B8F1010F21D0B8F1040F80
:102F50002FD0B8F1080F6ED151E0B8F1200F6BD02F
:102F6000B8F1400F38D0B8F1800F64D197E0FDF090
:102F700081F9604A616A32F81110B0FBF1F040004B
:102F8000616800EB5100B0FBF1F01FFA80FA89E0B4
:102F9000FEF702FD574A616A32F81110B0FBF1F0FA
:102FA0004000616800EB5100B0FBF1F01FFA80FABD
:102FB00078E005A8FDF7E4FB06994E4A606A32F80E
:102FC0001000B1FBF0F04000616800EB5100B0FB75
:102FD000F1F01FFA80FA65E002A8FDF7E7FC03991B
:102FE000444A606A32F81000B1FBF0F040006168BA
:102FF00000EB5100B0FBF1F01FFA80FA52E03E48BE
:103000000068C0F34010C0B13B480068C0F3C10184
:103010003A48C840374A616A32F81110B0FBF1F003
:103020004000616800EB5100B0FBF1F01FFA80FA3C
:1030300012E044E011E031E01FE02E49606A31F80F
:1030400010002E49B1FBF0F04000616800EB510028
:10305000B0FBF1F01FFA80FA24E02649606A31F8EB
:1030600010002749B1FBF0F04000616800EB51000F
:10307000B0FBF1F01FFA80FA14E01E49606A31F8E3
:1030800010004FF40041B1FBF0F04000616800EB2C
:103090005100B0FBF1F01FFA80FA03E000BF0120FD
:1030A000089000BF00BF4FF6F0700AEA0009CAF3AB
:1030B000420049EA00092068C0F80C90BEE0B8F16F
:1030C000100F7CD00CDCB8F1000F1BD0B8F1010F51
:1030D00029D0B8F1040F37D0B8F1080F70D159E0FA
:1030E000B8F1200F6DD0B8F1400F40D0B8F1800F8B
:1030F00066D19FE0B4450008004402580090D00318
:1031000000093D00FDF0B6F84E4A616A32F8111030
:10311000B0FBF1F0616800EB5100B0FBF1F080B260
:103120002168C86089E0FEF737FC464A616A32F8D8
:103130001110B0FBF1F0616800EB5100B0FBF1F051
:1031400080B22168C86078E005A8FDF719FB0699F0
:103150003C4A606A32F81000B1FBF0F0616800EBA5
:103160005100B0FBF1F080B22168C86065E002A8B0
:10317000FDF71CFC0399334A606A32F81000B1FB7A
:10318000F0F0616800EB5100B0FBF1F080B2216813
:10319000C86052E02C480068C0F34010C0B12A4813
:1031A0000068C0F3C1012948C840264A616A32F864
:1031B0001110B0FBF1F0616800EB510002E017E084
:1031C00037E025E0B0FBF1F080B22168C8600EE086
:1031D0001C49606A31F810001C49B1FBF0F06168CD
:1031E00000EB5100B0FBF1F080B22168C86024E030
:1031F0001449606A31F810001549B1FBF0F06168BC
:1032000000EB5100B0FBF1F080B22168C86014E01F
:103210000C49606A31F810004FF40041B1FBF0F046
:10322000616800EB5100B0FBF1F080B22168C8602A
:1032300003E000BF0120089000BF00BF089809B05C
:10324000BDE8F08FB4450008004402580090D00358
:1032500000093D0019481A4908601A4848601A4890
:1032600088604FF480608881C8810020088248828D
:10327000C882088348838882C8610862486281F8EE
:1032800028001248124908601248486012488860B5
:103290004FF480608881C881002008824882C882FB
:1032A0000883488388820D48C8610D4808620D482C
:1032B0004862002081F8280070470000001001409B
:1032C000DC00002408010024080500240048004018
:1032D0000809002434090024340D0024990810083A
:1032E000D52700089508100800BFFEE702E008C8CF
:1032F000121F08C1002AFAD170477047002001E070
:1033000001C1121F002AFBD17047000070B50446AE
:103310000120FDF0A7FE074806680020FDF0A2FE90
:10332000A64201DB351B03E06FF00040001B85194E
:10333000284670BD1800002410B5044604B910BD1D
:10334000012C00D102240120FDF08CFE094804600C
:10335000002009490870FDF085FE06E0FDF094FEAE
:1033600005480078012800D100E0F7E700BF00BF62
:10337000E5E700001000002414000024F0B5034627
:1033800000224FF0E02675690F4E36680F4FB6FBEE
:10339000F7F606FB03F400BF4FF0E026B16910E03A
:1033A0004FF0E026B06988420BD0884202D20E1A54
:1033B000324402E02E1A0E4432440146A24200D3A7
:1033C00000E0EDE700BFF0BD3000002440420F00F8
:1033D00070B5054605EB4500574901EBC00428468A
:1033E000FDF07CF9002843D02079052802DA052079
:1033F00020719FE020790A2803DA2079401C20718F
:1034000098E0A07A40B90120A07205EB450149007F
:10341000491CC8B200F0BEF920890028E9DDE08827
:103420002189884210DAE088401C80B2E08021893E
:1034300088427FD10220A07205EB45014900C91CDA
:10344000C8B200F0A7F975E0E07A002872DD207BB1
:10345000401CC0B22073E17A88426BDB00202073ED
:1034600005EB45014900491DC8B200F093F961E040
:103470002079052802DD0520207158E0207918B157
:103480002079401E207152E0A07A00284FD0208978
:1034900038B905EB45014900891CC8B200F07AF93A
:1034A00043E0A07A02280FD105EB45014900091D30
:1034B000C8B200F06FF9FDF0D9FD05EB45011E4AD9
:1034C00002EBC101486130E005EB45011A4A02EB0D
:1034D000C1014869FFF71AFFB0F5FA7F18DA207CBE
:1034E000012809D105EB45014900891DC8B200F04A
:1034F00051F90020207408E005EB45014900891CC2
:10350000C8B200F047F9002020745020E08104E0A8
:10351000207C401C20742820E081FDF0A7FD05EBF5
:103520004501054A02EBC10148610020A07200205C
:10353000E080207370BD00003C00002410B5FCF05A
:103540004BFFFEF7DFFE40F61470034908600846A3
:1035500000680249086010BD2000002400100060CF
:10356000F0B591B0402101A8FCF094FD4FF08044EB
:1035700000BF2948006840F001002749086008465C
:10358000006800F00100009000BF00BF23488442A3
:103590000BD02348844208D02248844205D02248D8
:1035A000844202D02148844203D121480068460861
:1035B00002E01F48006846081E48B6FBF0F0401EB7
:1035C00087B2B4F1804F02D01B48844202D14FF041
:1035D000FF3501E04FF6FF75019402970495002135
:1035E0000591039106918021079101A8FEF76FFED6
:1035F00020B14FF40C7111A0FCF79CFE02220021B7
:103600001C20FCF0C7FD1C20FCF0B4FD01A8FCF060
:1036100096FE11B0F0BD0000E844025800000140E1
:1036200000040140004001400044014000480140C6
:103630003000002440420F00000C00402E2E5C2E73
:103640002E5C557365725C6273705C7372635C624E
:1036500073705F74696D65722E63000010B5FDF0C4
:103660006FFDFDF027FD10BD70B5002416E00020B1
:1036700004EB4401214A02EB8101486004EB440160
:1036800002EB8101886004EB440102EB8101487088
:1036900004EB440102F82100601CC4B2042CE6DBF8
:1036A000174800684FF47A72B0FBF2F1481EB0F18F
:1036B000807F00D31BE0481E4FF0E022506150177E
:1036C0000F22002804DB13071D0E0E4B1D5406E0CD
:1036D00013071E0E0C4B00F00F052D1F5E5500BF8B
:1036E00000204FF0E02290610720106100BF012010
:1036F00006490870FFF734FF70BD0000AC000024DD
:103700003000002400E400E018ED00E01C0000247C
:1037100010B5FFF79FFDFCF001FFFDF099F810BD1B
:1037200010B5002430E004EB4400194901EBC0005F
:10373000C089002823DD04EB440001EBC000C089F0
:10374000401E80B204EB4401114A02EBC101C88162
:10375000A8B904EB4400114601EBC000007C01282D
:1037600006D104EB44014900891CC8B200F012F8EC
:10377000002004EB4401064A02EBC1010874204614
:10378000FFF726FE601CC4B2042CCCDB10BD000089
:103790003C0000240649C97A054A50541146C97AAA
:1037A000491CC9B2D1720A2901DB0021D1727047CC
:1037B0009C00002470470000F0B5A1B004460D46FF
:1037C00017461E46802101A8FCF064FC0194029576
:1037D000002103910491059707910696089109919C
:1037E0000A910B910C910D9100200E9001A8FCF014
:1037F000B5FD20B140F22A3102A0FCF79BFD21B0BB
:10380000F0BD00002E2E5C2E2E5C557365725C623E
:1038100073705C7372635C6273705F756172745F06
:103820006669666F2E630000416851B14168491EA8
:10383000416031B9012141700178012901D18168CC
:103840004160704710B5044601212046FDF0D7FDC8
:103850000021204600F0FFF82749204600F0EBF851
:1038600026A314220021204600F0C6F8012120469C
:1038700000F0F1F82249204600F0DDF821A30822EB
:103880001521204600F0B8F80021204600F0E3F8AA
:103890001949204600F0CFF81BA31E2233212046F1
:1038A00000F0AAF819A31E224321204600F0A4F834
:1038B0002F2323220221204600F08FF82F232422D9
:1038C0000321204600F089F80C2320222D212046D8
:1038D000FDF03CFD0C2321222E212046FDF036FD7B
:1038E0000B49204600F0A7F80AA336220121204602
:1038F00000F082F810BD0000F4211008550000000F
:10390000FA1B10083800000067000000B200000039
:10391000211F10086769746875622E636F6D2F6FC1
:103920006C696B726175732F753867320000000027
:10393000A6B0FDF0AAFB01A800F098FB0DE0FDF099
:10394000A3FB01A800F06AF800BF01A8FFF77AFF07
:1039500001A8FDF026FD0028F7D1F0E770B5044678
:103960002068057C94F8380010FB05F5ED00294629
:10397000606BFCF08FFB70BD2DE9F04104460D46F5
:1039800016461F467020005D30B101280AD002287B
:103990000ED0032818D111E02046E16D884730444D
:1039A00086B211E02046E16D8847281A85B20BE007
:1039B0002046E16D8847301A86B205E02046E16D69
:1039C0008847284485B200BF00BF3B46324629469F
:1039D000204600F0A2FABDE8F081F8B504460D4695
:1039E00016461F4600203B46324629460090204698
:1039F000FDF03EFCF8BD00002DE9F04104460D4607
:103A000016461F46044860603B463246294620461B
:103A100000F056F9BDE8F0810343000810B50446F4
:103A200094F8930010B12046FFF798FF002120463C
:103A3000FDF0D7FC10BD70B504460D46A06DA84240
:103A400008D0A565294604F1740000F035FB204636
:103A500000F05AF870BD7022115470470149C165D9
:103A600070470000513D00082DE9F04104460D4625
:103A700016461F46DDF818800020A065E7626563E2
:103A800084F8386084F8390000216D200155002049
:103A90007434607760760120A077E07744F8448C36
:103AA00054F8440C743C0168204688472046FDF0D9
:103AB000A9FC2046FFF7D2FF002170200155BDE888
:103AC000F08100002DE9FC4107460C4615461E46D4
:103AD0002B460A4A0A493846009600F0FDFB01A829
:103AE00000F0E2FA8046074B00949DF8042041461E
:103AF0003846FFF7B9FFBDE8FC81000035440008F7
:103B0000811A10086F171008816D01B97047812163
:103B1000095C80F88E108221095C80F88F1090F883
:103B20008D1099B390F88D10012914D190F98E2041
:103B300090F983108A4203DA8321095C80F88E10A1
:103B400090F98F2090F984108A421FDD8421095C4E
:103B500080F88F101AE090F97E2090F980101144BF
:103B600090F98E20914207DD7E210A5C8021095C5C
:103B7000114449B280F88E1090F98F2090F980108E
:103B80008A4203DD8021095C80F88F1000BFBDE709
:103B900010B523B1012B05D0022B09D105E0441843
:103BA000A0B208E0841AA0B205E0441AA0B202E074
:103BB0008418A0B200BF00BF10BD38B50446503411
:103BC000E08800906388A28834F850192046FDF000
:103BD000CBFB18B9002084F88C002AE0012084F87F
:103BE0008C00B4F84800B4F85010884203DAB4F8F6
:103BF0005000A4F84800B4F84A00B4F852108842C3
:103C000003DDB4F85200A4F84A00B4F84C00B4F84C
:103C10005410884203DAB4F85400A4F84C00B4F805
:103C20004E00B4F85610884203DDB4F85600A4F8EC
:103C30004E0038BD2DE9F84304460E4615461F4692
:103C4000DDF82080E08F281A85B2CDF800803B4651
:103C50002A4631462046D4F82CC0E047BDE8F88318
:103C60002DE9F84305460E4691461F46DDF82080B3
:103C7000B5F84440A01B84B208F0010010B9E01B65
:103C800084B201E0601E84B23B464A462146284683
:103C9000CDF80080FFF7CEFFBDE8F8832DE9F843AB
:103CA00004460D4616461F46DDF820803B46324648
:103CB00029462046CDF80080FFF7BCFFBDE8F88319
:103CC0002DE9F04706460F46904699463046FDF0EE
:103CD00090FF4FF0000A00BF99F80010304672685C
:103CE000904705464FF6FF718D4200D12CE009F157
:103CF00001094FF6FE708542EED02B46424639460A
:103D00003046FFF739FE04467020805D30B101284F
:103D100007D002280AD0032810D10AE0381987B248
:103D20000CE008EB04001FFA80F807E0381B87B2AC
:103D300004E0A8EB04001FFA80F800BF00BF0AEB04
:103D400004001FFA80FAC7E700BF5046BDE8F087BD
:103D500001460020704770B502460C46117B15687D
:103D6000287808410B461D19EBB2082B0EDB0825FD
:103D70006E1AF5B21668761C166016683678AE4074
:103D80000643F0B2A3F10806F3B200BF0125A54037
:103D90006D1E2840137370BD2DE9F34F85B00546A5
:103DA00005F160042846069900F0D8F895F96B6093
:103DB0007A20415D2046FDF003FC02907B20415DAE
:103DC0002046FDF0FDFB83467C20415D2046FDF052
:103DD000F7FB019094F90A00002871DD237C06EBC3
:103DE0000B0149424AB2A0880299FFF7D1FEA08098
:103DF000237C06EB0B0149424AB2E0880299FDF0B0
:103E000011FBE080A788B4F80680B946C246207C42
:103E100030B101280ED002281AD0032842D12EE05A
:103E200094F90A0048441FFA80F90AEB06001FFAC9
:103E300080FA37E0B81B87B2781C87B209F101001D
:103E40001FFA80F994F90A0050441FFA80FA29E019
:103E500094F90A00381A87B2781C87B209F1010078
:103E60001FFA80F9A8EB06001FFA80F808F101009C
:103E70001FFA80F80AF101001FFA80FA12E009EB3C
:103E800006001FFA80F994F90A00A8EB00001FFA57
:103E900080F808F101001FFA80F80AF101001FFA0A
:103EA00080FA00BF00BF4B46424639462846CDF84F
:103EB00000A0FDF059FA20B9019807B0BDE8F08FD5
:103EC00029E000202072607200BF7620415D20460C
:103ED000FFF741FF04907720415D2046FFF73BFF4D
:103EE000039000BF002228460499FDF07BFB0122CD
:103EF00028460399FDF076FB01212046FFF72BFFB2
:103F00000028EFD194F90900B042DEDB00BF00BF0A
:103F1000A07B85F892000198CFE72DE9F047044691
:103F20000D4616461F464FF00009642005536620D3
:103F3000065339462046FDF0ADFB8046B8F1000F30
:103F400005D041462046FFF727FF1FFA80F9484673
:103F5000BDE8F08702460A441078704770B5054600
:103F60000E4605F160042660002020737820415D34
:103F70002046FFF7F0FE40B2A0727920415D204656
:103F8000FFF7E9FE40B2E07295F89200A073A07BC3
:103F900008B9012000E00020E07370BD2DE9F04178
:103FA00006460D4614461F46402D1FD008DC282D1E
:103FB0000FD0292D10D02A2D12D02B2D49D113E04E
:103FC000412D1DD0492D25D04A2D2DD04B2D40D12E
:103FD00034E0FEF7CFFA3FE02046FFF7ADF93BE0D3
:103FE0002046FFF7CBF937E000BF35E01CB1402099
:103FF0001B49088003E040201949891C08802BE0F8
:104000001CB180201649088003E080201449891CD7
:10401000088021E01CB180201249088003E0802044
:104020001049891C088017E01CB110200D49088038
:1040300003E010200B49891C08800DE024B14FF4E7
:1040400000400949088303E04FF4004006494883D3
:1040500002E00020BDE8F08100BF0120FAE7000087
:1040600018080258180402580000025810B50446F7
:104070000A4B0B4A0B492046FFF724FD2046FDF072
:1040800063FC00212046FDF068FC6421204600F01E
:1040900019F92046FFF762FC10BD00009D3F0008A3
:1040A000154300086C4410080146082008700148B8
:1040B000704700003411002470B504460D460021FD
:1040C0002846FFF747FF207001212846FFF742FFEF
:1040D000607002212846FFF73DFFA07003212846AB
:1040E000FFF738FFE07004212846FFF733FF207107
:1040F00005212846FFF72EFF607106212846FFF7AD
:1041000029FFA07107212846FFF724FFE07108214D
:104110002846FFF71FFF207209212846FFF71AFFE4
:1041200040B260720A212846FFF714FF40B2A07225
:104130000B212846FFF70EFF40B2E0720C21284603
:10414000FFF708FF40B220730D212846FFF702FF5A
:1041500040B260730E212846FFF7FCFE40B2A07308
:104160000F212846FFF7F6FE40B2E07310212846E3
:10417000FFF7F0FE40B2207411212846FDF0D3FA7B
:10418000608213212846FDF0CEFAA0821521284630
:10419000FDF0C9FAE08270BD2DE9F041044600252A
:1041A00094F8387094F83960206890F8118000BF56
:1041B000324629462046FDF051FB681CC5B2701CF2
:1041C000C6B2BD4201DA4645F2DBBDE8F08110B56A
:1041D0001A3050F81A2C817F4FF6FF7303EAC101A1
:1041E0004184117C03EAC1010184C17F03EAC1015A
:1041F0008184817FC37F1A380B44547CA34204DD41
:10420000537C90F839401B1B99B24FF6FF7303EAB9
:10421000C10130F83E3F43804388838083880B444C
:104220008380938AC380D38A03813E3810BD10B542
:1042300004462046FFF7CBFF2068808AA4F846009A
:104240002068C08AA4F8440010BD10B5044620467A
:10425000FFF7BDFF10BD10B504460020403420819B
:10426000A08860812088A0816088E081403C204651
:10427000FFF7A3FC10BD10B5044600204234E080D7
:104280006088208100206081A08834F8421988422B
:1042900005DB4234A0882188401A6081423C4034CA
:1042A000E0882188401AE081403C2046FFF785FCE9
:1042B00010BD70B5044600231A4610212046A5689B
:1042C000A84770BD70B504460D4600232A460E214E
:1042D0002046A668B04770BD2DE9F04104460D4662
:1042E00017461E46DDF818802046FDF041FBA5600C
:1042F000E7602661C4F814802046FDF04FFBBDE85E
:10430000F081024609B10A2902D14FF6FF707047C9
:104310000846FCE72DE9F84F04460F461546984637
:104320002068007B00F0010BCBF101000090182FFA
:104330005BD004DC142F43D0172F75D104E0192F64
:1043400062D0202F70D14AE0464636E096F800A0B1
:10435000761C681EC5B24FF000092BE00AF0800001
:1043600028B1012241212046FDF036FC04E0002264
:1043700041212046FDF030FC4FEA4A604FEA106AC6
:1043800040212046009AFDF027FC206882792C21EC
:104390002046FDF021FC5A4640212046FDF01CFC41
:1043A0002068C2792C212046FDF016FC09F101009D
:1043B00000F0FF09B9F1080FD0DB002DC6DC36E0B4
:1043C0002068427849212046FDF006FC2068007BE9
:1043D00000F0010240212046FDF0FEFB27E02A46C6
:1043E0004A212046FDF0F8FB21E0206802784921AF
:1043F0002046FDF0F1FB2068827800232C21204626
:10440000D4F814C0E04712E02068C27800232C21C1
:104410002046D4F814C0E04720684278492120465D
:10442000FDF0DAFB03E0FFE70020BDE8F88F00BFF6
:104430000120FAE72DE9F04104460D4616461F46D5
:10444000A5F11400062826D2DFE800F01A030C15A7
:104450001B1C00212046FDF0BFFA31462046FDF02E
:10446000A6FA1AE000212046FDF0B6FA31462046B1
:10447000FDF09DFA11E001212046FDF0ADFA00BFEC
:1044800000BF00BF3B46324629462046D4F810C044
:10449000E047BDE8F0810020FBE700BF0120F8E71E
:1044A00070B504460D4600232A4616212046E668CC
:1044B000B04770BD2DE9F04104460D46164633461F
:1044C0002A4617212046E768B847BDE8F081F8B5CD
:1044D00005460C4600BF2678641C182E21D006DC49
:1044E000152E09D0162E08D0172E2CD110E0192E1B
:1044F00018D0FE2E27D11CE000BF207800900023AA
:104500009DF8002031462846EF68B847641C1BE040
:10451000207800906A4601212846FFF7CBFF641CF3
:1045200012E000BF00231A4631462846EF68B8471C
:104530000AE0207800909DF8002029212846FDF00F
:104540004BFB641C00E0F8BDC5E770B504460023D2
:104550001A4618212046E568A84770BD10B50446E4
:10456000002010BD010002000400060008000A003F
:104570000C0010002000400080000001010002003B
:104580000400060008000A000C0010002000400093
:10459000800000010000025801000100001C0258C8
:1045A000040000000008025800200000001C02580F
:1045B00008000000010002000400060008000A00D4
:1045C0000C001000200040008000000101000200EB
:1045D0000400060008000A000C0010002000400043
:1045E00080000001010002000400060008000A002B
:1045F0000C001000200040008000000101000200BB
:104600000400060008000A000C0010002000400012
:104610008000000100000000010203040102030405
:104620000607080944460008000000243C0000007A
:10463000EC320008804600083C0000243C250000C5
:10464000FC32000800000000000000000000000034
:10465000000000000000000000000000000000005A
:10466000000000000000000000000000100000003A
:10467000010000000090D0030090D0030000000073
:020000040810E2
:100000000648804706480047FEE7FEE7FEE7FEE7B2
:10001000FEE7FEE7FEE7FEE7FEE7FEE7650B1008FA
:10002000990200082DE9F05F0546002092469B46A4
:1000300088460646814640241BE0284641464746FE
:10004000224600F744F953465A46C01A914110D34C
:1000500011461846224600F72BF92D1A67EB0108C6
:100060004F4622460120002100F722F917EB000934
:100070004E41201EA4F10104DFDC484631462A46E9
:100080004346BDE8F09FD2B201E000F8012B491EC3
:10009000FBD270470022F6E710B513460A46044625
:1000A0001946FFF7F0FF204610BD00BFFEE7000035
:1000B00001480068704700002400002410B50320A8
:1000C00000F74AFB0F2000F709FB08B1012010BD23
:1000D00000F740FB0020FAE74178154A11600178EB
:1000E000F9B1121D41681160017B0907C27A41EA2A
:1000F0000261827A41EAC241427B41EA8241827BCB
:1001000041EA4241C27B41EA0241427A41EA02218C
:10011000027A41EA420102781143054A083211602D
:1001200005E00021024A121D1160121D1160704786
:1001300098ED00E040F001010D4A11600C49703962
:10014000096841F480310A4A703A116000BF00BF6B
:1001500000BFBFF34F8F00BF00BF00BF00BF00BF95
:1001600000BFBFF36F8F00BF00BF00BF704700002C
:1001700094ED00E001460846002809DB00F01F036B
:1001800001229A4043099B0003F1E023C3F80021B8
:1001900000BF70472DE9F05F80460D46164600F01F
:1001A00045FF074639462A46334601F00700C0F1AD
:1001B000070ABAF1040F02D94FF0040A01E0C0F1B6
:1001C000070AD14600F1040ABAF1070F02D24FF034
:1001D000000A01E0A0F1030AD4464FF0010A0AFA2E
:1001E00009FAAAF1010A0AEA020A0AFA0CFA4FF01D
:1001F000010B0BFA0CFBABF1010B0BEA030B4AEA08
:100200000B042146404600F019FFBDE8F09F0000B6
:1002100010B501F7D7FB0949096801F470614FF483
:10022000807292FAA2F2B2FA82F2D140044A515C90
:10023000C840044908600846006810BD18440258C8
:10024000144600083000002410B501F789FB074967
:10025000096801F07001102292FAA2F2B2FA82F259
:10026000D140034A515CC84010BD000020440258F0
:100270001446000810B501F773FB0749096801F03F
:100280007001102292FAA2F2B2FA82F2D140034A2D
:10029000515CC84010BD00001C44025814460008C0
:1002A00070B504460E4615460CB9012070BD94F891
:1002B000450028B9002084F84400204602F706F8DB
:1002C00004F10801206800F75DF83146A268206853
:1002D00000F798F82946E36AD4E9010200F72EF8FE
:1002E000A168206850F8210040F00100A268216850
:1002F00041F822000348006840F0004001490860CE
:100300000020D3E70040005270B504462546681E21
:10031000B0F1807F01D301200FE0681E4FF0E02193
:1003200048610F214FF0FF3000F088FE00204FF0B1
:10033000E021886107200861002070BD70470146F8
:10034000022081F83D000868008840F001000A683A
:100350001080012081F83D000020704710B5044650
:100360000CB9012010BDA06900B100E000BF94F8F5
:10037000790028B9002084F87800204600F02AF897
:10038000242084F879002068006820F001002168AA
:100390000860204602F78CFA012800D1E2E7606B82
:1003A00010B1204600F08EFC2068406820F4904098
:1003B000216848602068806820F02A0021688860F1
:1003C0002068006840F0010021680860204600F0C5
:1003D000EEFCC7E77047000000B587B000BF3E489D
:1003E000006840F008003C4908600846006800F0DA
:1003F0000800019000BF00BF00BF0846006840F041
:10040000100008600846006800F01000019000BF6E
:1004100000BF00BF0846006840F040000860084682
:10042000006800F04000019000BF00BF00BF084618
:10043000006840F0800008600846006800F0800016
:10044000019000BF00BF00BF0846006840F4807004
:1004500008600846006800F48070019000BF00BF8B
:1004600000BF1D480C38006840F480501A490C3910
:1004700008600846006800F48050019000BF00BF8B
:100480000220039001200490032005900C20069088
:100490004CF2B370029002A91048FFF6EDFF4FF640
:1004A0008070029002A90E48FFF6E6FF032002903A
:1004B00002A90C48FFF6E0FF4FF47F40029002A92A
:1004C0000948FFF6D9FF40F2CF60029002A9074821
:1004D000FFF6D2FF07B000BDE0440258000C0258FE
:1004E0000010025800180258001C02580020025840
:1004F00029B9084A12688243064B1A6004E0054A8B
:1005000012680243034B1A60024A1268024B1A60D7
:1005100070470000200000240010006000B5B5B056
:100520000120019000201F9001A800F755FB00BF9B
:100530006548006840F001006349086008460068AB
:1005400000F00100009000BF00BF00BF0846006837
:1005500040F0010008600846006800F001000090CB
:1005600000BF00BF00BF58481030006840F01000C6
:100570005549103108600846006800F010000090EE
:1005800000BF00BF4FF40070309002203190012076
:100590003290032033900720349030A94B48FFF667
:1005A0006BFF4FF4806030900720349030A94748AB
:1005B000FFF662FF012200212520FFF7EBFD252039
:1005C000FFF7D8FD0C2300224FF4E131404803F738
:1005D000F3F83F48006A40F040003D490862084691
:1005E000008B40F0080008830846006840F02000B7
:1005F000086000BF3448006840F0020032490860DB
:100600000846006800F00200009000BF00BF00BF75
:100610000846006840F0020008600846006800F0E4
:100620000200009000BF00BF00BF274808300068EC
:1006300040F480202449083108600846006800F42E
:100640008020009000BF00BF4FF4806030900220F7
:10065000319001203290032033900720349030A94C
:100660001C48FFF609FF4FF40060309007203490DB
:1006700030A91848FFF600FF032200212720FFF7CA
:1006800089FD2720FFF776FD0C2300224FF4165139
:10069000114803F791F810482030006840F04000FE
:1006A0000D49203108600C481830008840F00800DF
:1006B0000949183108800848006840F020000649C0
:1006C000086035B000BD0000E04402580000025848
:1006D0000010014000040258004800402DE9F0419C
:1006E0000546042D17DA0026FF27002408E02046DF
:1006F00001F7DCFE10B1701CC6B22746601CC4B204
:10070000042CF4DB012E04D1AF4202D10120BDE85C
:10071000F0810020FBE70020F9E700BFFEE770470B
:100720002DE9F04104460E4600274848006800F0D5
:100730000300032802D10120BDE8F0814348283896
:10074000006820F08050414928390860FFF7B0FC6C
:10075000054606E0FFF7ACFC401B022801D9032048
:10076000EAE73A4828380068C0F340700028F1D121
:1007700000BF3648006820F07C70218840EA0150B4
:1007800032490860A088401EC0F30800A168491ED5
:100790004FF47E4202EA41210843A189491ED20159
:1007A00002EA01410843217C491E120202EA01616A
:1007B000084326491831086000BF2448001D00681E
:1007C00020F44060616908432049091D086008461B
:1007D000006820F40070A16908431C49091D0860E5
:1007E0002EB90846006840F48000086012E0012E2F
:1007F00008D11648001D006840F400001349091D87
:10080000086007E01148001D006840F080700F4943
:10081000091D08600D482838006840F080500B49D9
:1008200028390860FFF744FC054606E0FFF740FC66
:10083000401B022801D903207EE7044828380068BD
:10084000C0F340700028F1D0384675E728440258BC
:1008500000B587B000BF0D48006840F002000B49AA
:1008600008600846006800F00200019000BF00BF69
:1008700001200390002004900320059004200290A2
:1008800002A90348FFF6F8FD07B000BDE044025896
:100890000004025870470000042001490880704796
:1008A0001804025810B50023234C236000BF00BF7A
:1008B00000BFBFF34F8F00BF00BF00BF231F1868EA
:1008C000C0F34E3100BFC0F3C90200BF43F6E0736E
:1008D00003EA41134FF0404404EA82742343174C67
:1008E000236000BF00BF131EA2F10102EED10B1E58
:1008F000A1F10101E7D100BF00BF00BFBFF34F8FDF
:1009000000BF00BF00BF0C4B703B1B6843F480333B
:10091000094C703C236000BF00BF00BFBFF34F8F86
:1009200000BF00BF00BF00BF00BF00BFBFF36F8F9D
:1009300000BF00BF00BF10BD84ED00E060EF00E02D
:1009400000BF00BF00BFBFF34F8F00BF00BF00BF9D
:1009500000BF00BF00BFBFF36F8F00BF00BF00BF6D
:1009600000201449086000BF00BF00BFBFF34F8FD5
:1009700000BF00BF00BF00BF00BF00BFBFF36F8F4D
:1009800000BF00BF00BF0C48006840F400300A49B7
:10099000086000BF00BF00BFBFF34F8F00BF00BFA4
:1009A00000BF00BF00BF00BFBFF36F8F00BF00BF1D
:1009B00000BF704750EF00E014ED00E0704700000A
:1009C00010B51B48006840B119480068401E18491E
:1009D000086010B9012017490870002408E004EBF2
:1009E0004401154A02EB810002F71EFF601CC4B2ED
:1009F000042CF4DB11480068401C104908600846CC
:100A000000686FF00041884202D100200B49086065
:100A100002F7D0FE0A480078401CC0B208490870AE
:100A20000A2803DB0020087000F008FC10BD00005D
:100A30001000002414000024AC000024180000243E
:100A40001D00002410B59CB0202114A8FFF722FB44
:100A50004C2101A8FFF71EFB00243A48006820F053
:100A600004003849086000BF0020009035480C3071
:100A7000006840F4404033490C3108600846006883
:100A800000F44040009000BF00BF00BF2D480C3074
:100A9000006800F40050B0F5005FF7D1012001902C
:100AA0000004029000200490089002200A90022185
:100AB0000B9105210C91A0210D9102210E91109115
:100AC00004210F91002112910821119101A801F731
:100AD0009BF804461CB18C211BA0FFF62BFC3F2089
:100AE00014900320159000201690082017904020A5
:100AF0001890199000011A9040201B90042114A80E
:100B000000F706FE04461CB1A7210FA0FFF612FC59
:100B10001348006840F080001149086000BF104889
:100B2000F430006840F002000D49F43108600846D6
:100B3000006800F00200009000BF00BFFFF692FCCA
:100B40001CB010BD0C4802582E2E5C2E2E5C557326
:100B500065725C6273705C6273702E6300000000EB
:100B6000004402582048006840F470001E490860A4
:100B70001E48006840F001001C49086000201B4925
:100B80001031086019480068194908401749086081
:100B90000020164918310860091D0860091D086009
:100BA000124928310860091D0860091D0860091DE7
:100BB0000860091D0860091D0860091D0860091DFD
:100BC00008600A48006820F4802008490860002076
:100BD000064960310860012006490860C0060249E4
:100BE000803908607047000088ED00E0004402583A
:100BF0007FEDF6EA0881005110B500220288294BEA
:100C000098420ED0B0F1804F0BD0274B984208D0BD
:100C1000264B984205D0264B984202D0254B98424D
:100C200003D122F070024B681A431E4B984217D032
:100C3000B0F1804F14D01C4B984211D01B4B9842FE
:100C40000ED01B4B98420BD01A4B984208D01A4B2F
:100C5000984205D0194B984202D0194B984203D1C3
:100C600022F44072CB681A4322F080034C6943EAB5
:100C7000040202808B68C3620B880385094B98428B
:100C80000BD00C4B984208D00B4B984205D00B4B25
:100C9000984202D00A4B984201D10B8A0386012365
:100CA000436110BD00000140000400400008004006
:100CB000000C00400004014000400140004401409D
:100CC0000048014090F8341001F0010139B1016889
:100CD000496821F40031826B11430268516090F839
:100CE000341001F0020139B10168496821F4803102
:100CF000C26B11430268516090F8341001F0040196
:100D000039B10168496821F48021026C11430268FD
:100D1000516090F8341001F0080139B10168496858
:100D200021F40041426C11430268516090F8341084
:100D300001F0100139B10168896821F48051826C99
:100D400011430268916090F8341001F0200139B12C
:100D50000168896821F40051C26C114302689160F6
:100D600090F8341001F0400199B10168496821F40C
:100D70008011026D114302685160016DB1F5801F51
:100D800007D10168496821F4C001426D114302682E
:100D9000516090F8341001F0800139B10168496860
:100DA00021F40021826D114302685160704738B50B
:100DB000044600250020E067FFF77AF90546206821
:100DC000006800F0080008280CD16FF07E402B4628
:100DD00000224FF400110090204600F022F808B1E4
:100DE000032038BD2068006800F0040004280CD1FE
:100DF0006FF07E402B4600224FF480010090204689
:100E000000F00FF808B10320EBE7202084F8790008
:100E100084F87A0000BF002084F8780000BF00BF8B
:100E2000DFE72DE9F04104460D4617469846069E39
:100E300021E0701CF8B12EB1FFF73AF9A0EB0800E1
:100E4000B04218D92068006820F4D070216808608A
:100E50002068806820F0010021688860202084F8E4
:100E6000790084F87A0000BF002084F8780000BF81
:100E70000320BDE8F0812068C0692840A84201D164
:100E8000012000E00020B842D3D00020F1E70000AC
:100E900010B5024800F00CF810BD0000DC00002482
:100EA00010B5024800F004F810BD00000809002445
:100EB0002DE9F04104462068C5692068066820686D
:100EC000D0F8088005F02000D8B12068808CC7B227
:100ED000E18AA0684754E08A401C80B2E082E18940
:100EE000884201DB0020E082608BE189884202DADF
:100EF000608B401C6083606A10B13846616A884725
:100F000000BF05F0800028B306F0800010B3A08A6F
:100F100060B92068006820F08000216808602068BF
:100F2000006840F040002168086013E0012084F868
:100F30002800618A6068405C21680885608A401CDE
:100F400080B26082A189884201DB00206082A08A91
:100F5000401EA08205F0400018B306F0400000B328
:100F6000A08A68B92068006820F040002168086005
:100F7000206A08B1206A8047002084F8280010E029
:100F8000618A6068405C21680885608A401C80B284
:100F90006082A189884201DB00206082A08A401E15
:100FA000A0822068006A40F0010021680862206881
:100FB000006A40F00200216808622068006A40F080
:100FC0000400216808622068006A40F00800216877
:100FD00008622068006A40F01000216808622068FA
:100FE000006A40F04000216808622068006A40F40E
:100FF0008070216808622068006A40F400702168EF
:1010000008622068006A40F40030216808622068A5
:10101000006A40F48010216808622068006A40F08D
:10102000200021680862BDE8F081000002480068E5
:10103000C0F30220704700000CED00E010B500285E
:1010400004DB0A07130E054A135406E00A07140EC0
:10105000034A00F00F031B1FD45410BD00E400E04E
:1010600018ED00E080F310887047000010B50120F3
:10107000FFF7F8FF034804680020FFF7F3FF20465E
:1010800010BD000018000024704710B501F728FAC1
:10109000FFF649F9FFF712F8FFF7D4FC02F7DEFA82
:1010A00002F7E2FA02F734FB02F748FA00F09AF886
:1010B00010BD000010B586B000BF1F48006840F0AA
:1010C00001001D4908600846006800F0010000901A
:1010D00000BF00BF00BF0846006840F00400086081
:1010E0000846006800F00400009000BF00BF00BF89
:1010F0000846006840F0800008600846006800F07C
:101100008000009000BF00BF0020029003900320E9
:10111000049000240CE0094800EBC4008088019092
:10112000064951F8340001A9FFF6A6F9601CC4B2C3
:10113000042CF0DB06B010BDE044025894450008D2
:1011400010B5002025498872C872087300242DE06C
:10115000642004EB4401224A02EBC1010881022011
:1011600004EB440102EBC1010871002004EB4401CF
:1011700002EBC101887204EB440102EBC101C872A9
:1011800004EB440102EBC101087304EB440102EBE0
:10119000C101C88104EB440102EBC101087404EBF6
:1011A000440102EBC1014861601CC4B2042CCFDBD6
:1011B00006226421002000F045F806226421012067
:1011C00000F040F806226421022000F03BF80622DD
:1011D0006421032000F036F810BD00009C000024BC
:1011E0003C00002410B5012000F00AF8022000F0B5
:1011F00007F8032000F004F8042000F001F810BD07
:1012000010B50446012C04D101210002FFF770F94A
:1012100013E0022C04D101214802FFF769F90CE028
:10122000032C04D101218802FFF762F905E0042CA8
:1012300003D10121C802FFF75BF910BD10B502F719
:101240006FFA10BD30B500EB4003084C04EBC3034C
:10125000198100EB400304EBC303DA72002300EBB7
:101260004004024D05EBC404237330BD3C00002450
:101270007FB582B004460A9D94F88C00002863D0A4
:10128000BDF8140000285FD0BDF8140001281CDD53
:10129000022D0CD1BDF80C00BDF81410401A80B21C
:1012A0000390BDF80C00401C80B203900DE0032DAC
:1012B0000BD1BDF81000BDF81410401A80B2049094
:1012C000BDF81000401C80B2049005F00105C5B9BE
:1012D000B4F84C00BDF81010884201DD06B070BDB6
:1012E000B4F84E00BDF81010884200DCF6E7B4F800
:1012F0004A30B4F8482005A903A800F0A8F8C0B9FE
:10130000ECE7B4F84800BDF80C10884200DDE5E7D2
:10131000B4F84A00BDF80C10884200DCDEE7B4F8EF
:101320004E30B4F84C2005A904A800F090F800B99C
:10133000D4E70095206BBDF81430BDF81020BDF83F
:101340000C1086682046B04700BFC7E7F8B50446D2
:101350000D4616461F4601203B4632462946009060
:101360002046FFF785FFF8BD2DE9F04104460D4604
:1013700016461F46DDF81880B4F84E10B4F84C003D
:101380004346324600F0DBF910B90020BDE8F08199
:10139000B4F84A10B4F848003B462A4600F0CFF9AA
:1013A000F4E770B50446204602F7F6FE94F839508B
:1013B00094F838002844C5B22068407CA84204DC78
:1013C000204602F776FF002070BD94F8930010B11C
:1013D000204602F7C3FA2946204600F002F8012011
:1013E000F2E770B504460D4684F83950206B016869
:1013F00020468847206B41682046884770BD6D2293
:101400001154704710B50446002030342084A08465
:101410004FF6FF706084E08454F83009416820463C
:10142000884710BD10B523B1012B05D0022B09D17F
:1014300005E08418A0B208E04418A0B205E0841AC0
:10144000A0B202E0441AA0B200BF00BF10BD70B548
